{
  "_format": "hh-sol-artifact-1",
  "contractName": "NFT",
  "sourceName": "src/NFT.sol",
  "abi": [
    {
      "inputs": [
        {
          "internalType": "string",
          "name": "tokenBaseUri",
          "type": "string"
        },
        {
          "internalType": "string",
          "name": "mysteryURI",
          "type": "string"
        },
        {
          "internalType": "address",
          "name": "_withdrawAddress",
          "type": "address"
        },
        {
          "internalType": "string",
          "name": "_name",
          "type": "string"
        },
        {
          "internalType": "string",
          "name": "_symbol",
          "type": "string"
        }
      ],
      "stateMutability": "nonpayable",
      "type": "constructor"
    },
    {
      "anonymous": false,
      "inputs": [
        {
          "indexed": true,
          "internalType": "address",
          "name": "owner",
          "type": "address"
        },
        {
          "indexed": true,
          "internalType": "address",
          "name": "approved",
          "type": "address"
        },
        {
          "indexed": true,
          "internalType": "uint256",
          "name": "tokenId",
          "type": "uint256"
        }
      ],
      "name": "Approval",
      "type": "event"
    },
    {
      "anonymous": false,
      "inputs": [
        {
          "indexed": true,
          "internalType": "address",
          "name": "owner",
          "type": "address"
        },
        {
          "indexed": true,
          "internalType": "address",
          "name": "operator",
          "type": "address"
        },
        {
          "indexed": false,
          "internalType": "bool",
          "name": "approved",
          "type": "bool"
        }
      ],
      "name": "ApprovalForAll",
      "type": "event"
    },
    {
      "anonymous": false,
      "inputs": [
        {
          "indexed": true,
          "internalType": "address",
          "name": "previousOwner",
          "type": "address"
        },
        {
          "indexed": true,
          "internalType": "address",
          "name": "newOwner",
          "type": "address"
        }
      ],
      "name": "OwnershipTransferred",
      "type": "event"
    },
    {
      "anonymous": false,
      "inputs": [
        {
          "indexed": true,
          "internalType": "address",
          "name": "from",
          "type": "address"
        },
        {
          "indexed": true,
          "internalType": "address",
          "name": "to",
          "type": "address"
        },
        {
          "indexed": true,
          "internalType": "uint256",
          "name": "tokenId",
          "type": "uint256"
        }
      ],
      "name": "Transfer",
      "type": "event"
    },
    {
      "inputs": [],
      "name": "NFTS_PER_MINT",
      "outputs": [
        {
          "internalType": "uint256",
          "name": "",
          "type": "uint256"
        }
      ],
      "stateMutability": "view",
      "type": "function"
    },
    {
      "inputs": [],
      "name": "NFT_MAX_SUPPLY",
      "outputs": [
        {
          "internalType": "uint256",
          "name": "",
          "type": "uint256"
        }
      ],
      "stateMutability": "view",
      "type": "function"
    },
    {
      "inputs": [],
      "name": "NFT_PRICE",
      "outputs": [
        {
          "internalType": "uint256",
          "name": "",
          "type": "uint256"
        }
      ],
      "stateMutability": "view",
      "type": "function"
    },
    {
      "inputs": [],
      "name": "_mysteryURI",
      "outputs": [
        {
          "internalType": "string",
          "name": "",
          "type": "string"
        }
      ],
      "stateMutability": "view",
      "type": "function"
    },
    {
      "inputs": [
        {
          "internalType": "address",
          "name": "to",
          "type": "address"
        },
        {
          "internalType": "uint256",
          "name": "tokenId",
          "type": "uint256"
        }
      ],
      "name": "approve",
      "outputs": [],
      "stateMutability": "nonpayable",
      "type": "function"
    },
    {
      "inputs": [
        {
          "internalType": "address",
          "name": "owner",
          "type": "address"
        }
      ],
      "name": "balanceOf",
      "outputs": [
        {
          "internalType": "uint256",
          "name": "",
          "type": "uint256"
        }
      ],
      "stateMutability": "view",
      "type": "function"
    },
    {
      "inputs": [],
      "name": "contractBalance",
      "outputs": [
        {
          "internalType": "uint256",
          "name": "",
          "type": "uint256"
        }
      ],
      "stateMutability": "view",
      "type": "function"
    },
    {
      "inputs": [],
      "name": "contractURI",
      "outputs": [
        {
          "internalType": "string",
          "name": "",
          "type": "string"
        }
      ],
      "stateMutability": "view",
      "type": "function"
    },
    {
      "inputs": [],
      "name": "currentBalance",
      "outputs": [
        {
          "internalType": "uint256",
          "name": "",
          "type": "uint256"
        }
      ],
      "stateMutability": "view",
      "type": "function"
    },
    {
      "inputs": [],
      "name": "currentSupply",
      "outputs": [
        {
          "internalType": "string",
          "name": "",
          "type": "string"
        }
      ],
      "stateMutability": "view",
      "type": "function"
    },
    {
      "inputs": [
        {
          "internalType": "bool",
          "name": "_data",
          "type": "bool"
        }
      ],
      "name": "fromBoolToString",
      "outputs": [
        {
          "internalType": "string",
          "name": "",
          "type": "string"
        }
      ],
      "stateMutability": "pure",
      "type": "function"
    },
    {
      "inputs": [
        {
          "internalType": "uint256",
          "name": "tokenId",
          "type": "uint256"
        }
      ],
      "name": "getApproved",
      "outputs": [
        {
          "internalType": "address",
          "name": "",
          "type": "address"
        }
      ],
      "stateMutability": "view",
      "type": "function"
    },
    {
      "inputs": [],
      "name": "getContractValuesInObject",
      "outputs": [
        {
          "internalType": "string",
          "name": "",
          "type": "string"
        }
      ],
      "stateMutability": "view",
      "type": "function"
    },
    {
      "inputs": [],
      "name": "giftLive",
      "outputs": [
        {
          "internalType": "bool",
          "name": "",
          "type": "bool"
        }
      ],
      "stateMutability": "view",
      "type": "function"
    },
    {
      "inputs": [
        {
          "internalType": "address",
          "name": "owner",
          "type": "address"
        },
        {
          "internalType": "address",
          "name": "operator",
          "type": "address"
        }
      ],
      "name": "isApprovedForAll",
      "outputs": [
        {
          "internalType": "bool",
          "name": "",
          "type": "bool"
        }
      ],
      "stateMutability": "view",
      "type": "function"
    },
    {
      "inputs": [
        {
          "internalType": "uint256",
          "name": "tokenQuantity",
          "type": "uint256"
        }
      ],
      "name": "mint",
      "outputs": [],
      "stateMutability": "payable",
      "type": "function"
    },
    {
      "inputs": [
        {
          "internalType": "uint256",
          "name": "tokenQuantity",
          "type": "uint256"
        },
        {
          "internalType": "address",
          "name": "wallet",
          "type": "address"
        }
      ],
      "name": "mintGiftAsOwner",
      "outputs": [],
      "stateMutability": "nonpayable",
      "type": "function"
    },
    {
      "inputs": [],
      "name": "name",
      "outputs": [
        {
          "internalType": "string",
          "name": "",
          "type": "string"
        }
      ],
      "stateMutability": "view",
      "type": "function"
    },
    {
      "inputs": [],
      "name": "owner",
      "outputs": [
        {
          "internalType": "address",
          "name": "",
          "type": "address"
        }
      ],
      "stateMutability": "view",
      "type": "function"
    },
    {
      "inputs": [
        {
          "internalType": "uint256",
          "name": "tokenId",
          "type": "uint256"
        }
      ],
      "name": "ownerOf",
      "outputs": [
        {
          "internalType": "address",
          "name": "",
          "type": "address"
        }
      ],
      "stateMutability": "view",
      "type": "function"
    },
    {
      "inputs": [],
      "name": "renounceOwnership",
      "outputs": [],
      "stateMutability": "nonpayable",
      "type": "function"
    },
    {
      "inputs": [],
      "name": "revealed",
      "outputs": [
        {
          "internalType": "bool",
          "name": "",
          "type": "bool"
        }
      ],
      "stateMutability": "view",
      "type": "function"
    },
    {
      "inputs": [
        {
          "internalType": "address",
          "name": "from",
          "type": "address"
        },
        {
          "internalType": "address",
          "name": "to",
          "type": "address"
        },
        {
          "internalType": "uint256",
          "name": "tokenId",
          "type": "uint256"
        }
      ],
      "name": "safeTransferFrom",
      "outputs": [],
      "stateMutability": "nonpayable",
      "type": "function"
    },
    {
      "inputs": [
        {
          "internalType": "address",
          "name": "from",
          "type": "address"
        },
        {
          "internalType": "address",
          "name": "to",
          "type": "address"
        },
        {
          "internalType": "uint256",
          "name": "tokenId",
          "type": "uint256"
        },
        {
          "internalType": "bytes",
          "name": "_data",
          "type": "bytes"
        }
      ],
      "name": "safeTransferFrom",
      "outputs": [],
      "stateMutability": "nonpayable",
      "type": "function"
    },
    {
      "inputs": [],
      "name": "saleLive",
      "outputs": [
        {
          "internalType": "bool",
          "name": "",
          "type": "bool"
        }
      ],
      "stateMutability": "view",
      "type": "function"
    },
    {
      "inputs": [
        {
          "internalType": "address",
          "name": "operator",
          "type": "address"
        },
        {
          "internalType": "bool",
          "name": "approved",
          "type": "bool"
        }
      ],
      "name": "setApprovalForAll",
      "outputs": [],
      "stateMutability": "nonpayable",
      "type": "function"
    },
    {
      "inputs": [
        {
          "internalType": "string",
          "name": "URI",
          "type": "string"
        }
      ],
      "name": "setBaseURI",
      "outputs": [],
      "stateMutability": "nonpayable",
      "type": "function"
    },
    {
      "inputs": [
        {
          "internalType": "string",
          "name": "URI",
          "type": "string"
        }
      ],
      "name": "setContractURI",
      "outputs": [],
      "stateMutability": "nonpayable",
      "type": "function"
    },
    {
      "inputs": [
        {
          "internalType": "string",
          "name": "URI",
          "type": "string"
        }
      ],
      "name": "setMysteryURI",
      "outputs": [],
      "stateMutability": "nonpayable",
      "type": "function"
    },
    {
      "inputs": [
        {
          "internalType": "uint256",
          "name": "max",
          "type": "uint256"
        }
      ],
      "name": "setNFTMax",
      "outputs": [],
      "stateMutability": "nonpayable",
      "type": "function"
    },
    {
      "inputs": [
        {
          "internalType": "uint256",
          "name": "quantity",
          "type": "uint256"
        }
      ],
      "name": "setNftsPerMint",
      "outputs": [],
      "stateMutability": "nonpayable",
      "type": "function"
    },
    {
      "inputs": [
        {
          "internalType": "uint256",
          "name": "price",
          "type": "uint256"
        }
      ],
      "name": "setPriceOfNFT",
      "outputs": [],
      "stateMutability": "nonpayable",
      "type": "function"
    },
    {
      "inputs": [
        {
          "internalType": "address",
          "name": "_newWithdrawAddress",
          "type": "address"
        }
      ],
      "name": "setWithdrawAddress",
      "outputs": [],
      "stateMutability": "nonpayable",
      "type": "function"
    },
    {
      "inputs": [
        {
          "internalType": "bytes4",
          "name": "interfaceId",
          "type": "bytes4"
        }
      ],
      "name": "supportsInterface",
      "outputs": [
        {
          "internalType": "bool",
          "name": "",
          "type": "bool"
        }
      ],
      "stateMutability": "view",
      "type": "function"
    },
    {
      "inputs": [],
      "name": "symbol",
      "outputs": [
        {
          "internalType": "string",
          "name": "",
          "type": "string"
        }
      ],
      "stateMutability": "view",
      "type": "function"
    },
    {
      "inputs": [],
      "name": "toggleReveal",
      "outputs": [],
      "stateMutability": "nonpayable",
      "type": "function"
    },
    {
      "inputs": [],
      "name": "toggleSaleGiftStatus",
      "outputs": [],
      "stateMutability": "nonpayable",
      "type": "function"
    },
    {
      "inputs": [],
      "name": "toggleSaleStatus",
      "outputs": [],
      "stateMutability": "nonpayable",
      "type": "function"
    },
    {
      "inputs": [
        {
          "internalType": "uint256",
          "name": "tokenId",
          "type": "uint256"
        }
      ],
      "name": "tokenURI",
      "outputs": [
        {
          "internalType": "string",
          "name": "",
          "type": "string"
        }
      ],
      "stateMutability": "view",
      "type": "function"
    },
    {
      "inputs": [],
      "name": "totalSupply",
      "outputs": [
        {
          "internalType": "uint256",
          "name": "",
          "type": "uint256"
        }
      ],
      "stateMutability": "view",
      "type": "function"
    },
    {
      "inputs": [
        {
          "internalType": "address",
          "name": "from",
          "type": "address"
        },
        {
          "internalType": "address",
          "name": "to",
          "type": "address"
        },
        {
          "internalType": "uint256",
          "name": "tokenId",
          "type": "uint256"
        }
      ],
      "name": "transferFrom",
      "outputs": [],
      "stateMutability": "nonpayable",
      "type": "function"
    },
    {
      "inputs": [
        {
          "internalType": "address",
          "name": "newOwner",
          "type": "address"
        }
      ],
      "name": "transferOwnership",
      "outputs": [],
      "stateMutability": "nonpayable",
      "type": "function"
    },
    {
      "inputs": [],
      "name": "withdraw",
      "outputs": [],
      "stateMutability": "nonpayable",
      "type": "function"
    }
  ],
  "bytecode": "0x608060405261045760075566b1a2bc2ec50000600855601460095547600d556000600e60146101000a81548160ff0219169083151502179055506000600e60156101000a81548160ff0219169083151502179055506000600e60166101000a81548160ff0219169083151502179055503480156200007c57600080fd5b5060405162005071380380620050718339818101604052810190620000a2919062000389565b81818160009080519060200190620000bc92919062000244565b508060019080519060200190620000d592919062000244565b505050620000f8620000ec6200017660201b60201c565b6200017e60201b60201c565b84600b90805190602001906200011092919062000244565b5083600c90805190602001906200012992919062000244565b5082600e60006101000a81548173ffffffffffffffffffffffffffffffffffffffff021916908373ffffffffffffffffffffffffffffffffffffffff16021790555050505050506200065f565b600033905090565b6000600660009054906101000a900473ffffffffffffffffffffffffffffffffffffffff16905081600660006101000a81548173ffffffffffffffffffffffffffffffffffffffff021916908373ffffffffffffffffffffffffffffffffffffffff1602179055508173ffffffffffffffffffffffffffffffffffffffff168173ffffffffffffffffffffffffffffffffffffffff167f8be0079c531659141344cd1fd0a4f28419497f9722a3daafe3b4186f6b6457e060405160405180910390a35050565b828054620002529062000556565b90600052602060002090601f016020900481019282620002765760008555620002c2565b82601f106200029157805160ff1916838001178555620002c2565b82800160010185558215620002c2579182015b82811115620002c1578251825591602001919060010190620002a4565b5b509050620002d19190620002d5565b5090565b5b80821115620002f0576000816000905550600101620002d6565b5090565b60006200030b6200030584620004b6565b6200048d565b9050828152602081018484840111156200032a576200032962000625565b5b6200033784828562000520565b509392505050565b600081519050620003508162000645565b92915050565b600082601f8301126200036e576200036d62000620565b5b815162000380848260208601620002f4565b91505092915050565b600080600080600060a08688031215620003a857620003a76200062f565b5b600086015167ffffffffffffffff811115620003c957620003c86200062a565b5b620003d78882890162000356565b955050602086015167ffffffffffffffff811115620003fb57620003fa6200062a565b5b620004098882890162000356565b94505060406200041c888289016200033f565b935050606086015167ffffffffffffffff81111562000440576200043f6200062a565b5b6200044e8882890162000356565b925050608086015167ffffffffffffffff8111156200047257620004716200062a565b5b620004808882890162000356565b9150509295509295909350565b600062000499620004ac565b9050620004a782826200058c565b919050565b6000604051905090565b600067ffffffffffffffff821115620004d457620004d3620005f1565b5b620004df8262000634565b9050602081019050919050565b6000620004f98262000500565b9050919050565b600073ffffffffffffffffffffffffffffffffffffffff82169050919050565b60005b838110156200054057808201518184015260208101905062000523565b8381111562000550576000848401525b50505050565b600060028204905060018216806200056f57607f821691505b60208210811415620005865762000585620005c2565b5b50919050565b620005978262000634565b810181811067ffffffffffffffff82111715620005b957620005b8620005f1565b5b80604052505050565b7f4e487b7100000000000000000000000000000000000000000000000000000000600052602260045260246000fd5b7f4e487b7100000000000000000000000000000000000000000000000000000000600052604160045260246000fd5b600080fd5b600080fd5b600080fd5b600080fd5b6000601f19601f8301169050919050565b6200065081620004ec565b81146200065c57600080fd5b50565b614a02806200066f6000396000f3fe60806040526004361061025c5760003560e01c806370a0823111610144578063b88d4fde116100b6578063e423a5111161007a578063e423a5111461087b578063e72be68a146108a4578063e8a3d485146108cd578063e985e9c5146108f8578063f2fde38b14610935578063fcb93c211461095e5761025c565b8063b88d4fde146107a8578063c87b56dd146107d1578063cb908cce1461080e578063ce845d1d14610825578063e081b781146108505761025c565b80638da5cb5b116101085780638da5cb5b146106b9578063938e3d7b146106e457806395d89b411461070d578063a0712d6814610738578063a22cb46514610754578063a4f8eaeb1461077d5761025c565b806370a08231146105e4578063715018a61461062157806372bfb1af14610638578063771282f6146106635780638b7afe2e1461068e5761025c565b80633ab1a494116101dd57806351830227116101a157806351830227146104e857806355f804b3146105135780635b0c52fd1461053c5780635b8ad429146105655780636352211e1461057c578063676dd563146105b95761025c565b80633ab1a494146104195780633cac3505146104425780633ccfd60b1461046b57806342842e0e146104825780634e9920aa146104ab5761025c565b806318160ddd1161022457806318160ddd146103465780631bd98e721461037157806323b872dd1461039a5780632b241e1b146103c35780632cff9e06146103ee5761025c565b806301ffc9a714610261578063049c5c491461029e57806306fdde03146102b5578063081812fc146102e0578063095ea7b31461031d575b600080fd5b34801561026d57600080fd5b50610288600480360381019061028391906131bd565b610989565b6040516102959190613a9c565b60405180910390f35b3480156102aa57600080fd5b506102b3610a6b565b005b3480156102c157600080fd5b506102ca610b13565b6040516102d79190613ab7565b60405180910390f35b3480156102ec57600080fd5b5061030760048036038101906103029190613264565b610ba5565b6040516103149190613a35565b60405180910390f35b34801561032957600080fd5b50610344600480360381019061033f9190613150565b610c2a565b005b34801561035257600080fd5b5061035b610d42565b6040516103689190613db9565b60405180910390f35b34801561037d57600080fd5b5061039860048036038101906103939190613291565b610d53565b005b3480156103a657600080fd5b506103c160048036038101906103bc919061303a565b610f19565b005b3480156103cf57600080fd5b506103d8610f79565b6040516103e59190613db9565b60405180910390f35b3480156103fa57600080fd5b50610403610f7f565b6040516104109190613a9c565b60405180910390f35b34801561042557600080fd5b50610440600480360381019061043b9190612fcd565b610f92565b005b34801561044e57600080fd5b5061046960048036038101906104649190613264565b611052565b005b34801561047757600080fd5b506104806110d8565b005b34801561048e57600080fd5b506104a960048036038101906104a4919061303a565b6111ef565b005b3480156104b757600080fd5b506104d260048036038101906104cd9190613190565b61120f565b6040516104df9190613ab7565b60405180910390f35b3480156104f457600080fd5b506104fd611299565b60405161050a9190613a9c565b60405180910390f35b34801561051f57600080fd5b5061053a60048036038101906105359190613217565b6112ac565b005b34801561054857600080fd5b50610563600480360381019061055e9190613264565b61133e565b005b34801561057157600080fd5b5061057a6113c4565b005b34801561058857600080fd5b506105a3600480360381019061059e9190613264565b61146c565b6040516105b09190613a35565b60405180910390f35b3480156105c557600080fd5b506105ce61151e565b6040516105db9190613db9565b60405180910390f35b3480156105f057600080fd5b5061060b60048036038101906106069190612fcd565b611524565b6040516106189190613db9565b60405180910390f35b34801561062d57600080fd5b506106366115dc565b005b34801561064457600080fd5b5061064d611664565b60405161065a9190613db9565b60405180910390f35b34801561066f57600080fd5b5061067861166a565b6040516106859190613ab7565b60405180910390f35b34801561069a57600080fd5b506106a3611683565b6040516106b09190613db9565b60405180910390f35b3480156106c557600080fd5b506106ce61168b565b6040516106db9190613a35565b60405180910390f35b3480156106f057600080fd5b5061070b60048036038101906107069190613217565b6116b5565b005b34801561071957600080fd5b50610722611747565b60405161072f9190613ab7565b60405180910390f35b610752600480360381019061074d9190613264565b6117d9565b005b34801561076057600080fd5b5061077b60048036038101906107769190613110565b6119e8565b005b34801561078957600080fd5b506107926119fe565b60405161079f9190613ab7565b60405180910390f35b3480156107b457600080fd5b506107cf60048036038101906107ca919061308d565b611a8c565b005b3480156107dd57600080fd5b506107f860048036038101906107f39190613264565b611aee565b6040516108059190613ab7565b60405180910390f35b34801561081a57600080fd5b50610823611c19565b005b34801561083157600080fd5b5061083a611cc1565b6040516108479190613db9565b60405180910390f35b34801561085c57600080fd5b50610865611cc7565b6040516108729190613a9c565b60405180910390f35b34801561088757600080fd5b506108a2600480360381019061089d9190613264565b611cda565b005b3480156108b057600080fd5b506108cb60048036038101906108c69190613217565b611d60565b005b3480156108d957600080fd5b506108e2611df2565b6040516108ef9190613ab7565b60405180910390f35b34801561090457600080fd5b5061091f600480360381019061091a9190612ffa565b611e84565b60405161092c9190613a9c565b60405180910390f35b34801561094157600080fd5b5061095c60048036038101906109579190612fcd565b611f18565b005b34801561096a57600080fd5b50610973612010565b6040516109809190613ab7565b60405180910390f35b60007f80ac58cd000000000000000000000000000000000000000000000000000000007bffffffffffffffffffffffffffffffffffffffffffffffffffffffff1916827bffffffffffffffffffffffffffffffffffffffffffffffffffffffff19161480610a5457507f5b5e139f000000000000000000000000000000000000000000000000000000007bffffffffffffffffffffffffffffffffffffffffffffffffffffffff1916827bffffffffffffffffffffffffffffffffffffffffffffffffffffffff1916145b80610a645750610a63826120b4565b5b9050919050565b610a7361211e565b73ffffffffffffffffffffffffffffffffffffffff16610a9161168b565b73ffffffffffffffffffffffffffffffffffffffff1614610ae7576040517f08c379a0000000000000000000000000000000000000000000000000000000008152600401610ade90613cb9565b60405180910390fd5b600e60159054906101000a900460ff1615600e60156101000a81548160ff021916908315150217905550565b606060008054610b2290614058565b80601f0160208091040260200160405190810160405280929190818152602001828054610b4e90614058565b8015610b9b5780601f10610b7057610100808354040283529160200191610b9b565b820191906000526020600020905b815481529060010190602001808311610b7e57829003601f168201915b5050505050905090565b6000610bb082612126565b610bef576040517f08c379a0000000000000000000000000000000000000000000000000000000008152600401610be690613c99565b60405180910390fd5b6004600083815260200190815260200160002060009054906101000a900473ffffffffffffffffffffffffffffffffffffffff169050919050565b6000610c358261146c565b90508073ffffffffffffffffffffffffffffffffffffffff168373ffffffffffffffffffffffffffffffffffffffff161415610ca6576040517f08c379a0000000000000000000000000000000000000000000000000000000008152600401610c9d90613cf9565b60405180910390fd5b8073ffffffffffffffffffffffffffffffffffffffff16610cc561211e565b73ffffffffffffffffffffffffffffffffffffffff161480610cf45750610cf381610cee61211e565b611e84565b5b610d33576040517f08c379a0000000000000000000000000000000000000000000000000000000008152600401610d2a90613c19565b60405180910390fd5b610d3d8383612192565b505050565b6000610d4e600f61224b565b905090565b610d5b61211e565b73ffffffffffffffffffffffffffffffffffffffff16610d7961168b565b73ffffffffffffffffffffffffffffffffffffffff1614610dcf576040517f08c379a0000000000000000000000000000000000000000000000000000000008152600401610dc690613cb9565b60405180910390fd5b81600754610ddd600f61224b565b10610e1d576040517f08c379a0000000000000000000000000000000000000000000000000000000008152600401610e1490613bb9565b60405180910390fd5b60075481610e2b600f61224b565b610e359190613e8d565b1115610e76576040517f08c379a0000000000000000000000000000000000000000000000000000000008152600401610e6d90613b19565b60405180910390fd5b600954811115610ebb576040517f08c379a0000000000000000000000000000000000000000000000000000000008152600401610eb290613d59565b60405180910390fd5b600e60169054906101000a900460ff16610f0a576040517f08c379a0000000000000000000000000000000000000000000000000000000008152600401610f0190613d99565b60405180910390fd5b610f148284612259565b505050565b610f2a610f2461211e565b82612299565b610f69576040517f08c379a0000000000000000000000000000000000000000000000000000000008152600401610f6090613d39565b60405180910390fd5b610f74838383612377565b505050565b60075481565b600e60169054906101000a900460ff1681565b610f9a61211e565b73ffffffffffffffffffffffffffffffffffffffff16610fb861168b565b73ffffffffffffffffffffffffffffffffffffffff161461100e576040517f08c379a000000000000000000000000000000000000000000000000000000000815260040161100590613cb9565b60405180910390fd5b80600e60006101000a81548173ffffffffffffffffffffffffffffffffffffffff021916908373ffffffffffffffffffffffffffffffffffffffff16021790555050565b61105a61211e565b73ffffffffffffffffffffffffffffffffffffffff1661107861168b565b73ffffffffffffffffffffffffffffffffffffffff16146110ce576040517f08c379a00000000000000000000000000000000000000000000000000000000081526004016110c590613cb9565b60405180910390fd5b8060098190555050565b6110e061211e565b73ffffffffffffffffffffffffffffffffffffffff166110fe61168b565b73ffffffffffffffffffffffffffffffffffffffff1614611154576040517f08c379a000000000000000000000000000000000000000000000000000000000815260040161114b90613cb9565b60405180910390fd5b6000600e60009054906101000a900473ffffffffffffffffffffffffffffffffffffffff1673ffffffffffffffffffffffffffffffffffffffff164760405161119c90613a20565b60006040518083038185875af1925050503d80600081146111d9576040519150601f19603f3d011682016040523d82523d6000602084013e6111de565b606091505b50509050806111ec57600080fd5b50565b61120a83838360405180602001604052806000815250611a8c565b505050565b606060011515821515141561125b576040518060400160405280600481526020017f74727565000000000000000000000000000000000000000000000000000000008152509050611294565b6040518060400160405280600581526020017f66616c736500000000000000000000000000000000000000000000000000000081525090505b919050565b600e60149054906101000a900460ff1681565b6112b461211e565b73ffffffffffffffffffffffffffffffffffffffff166112d261168b565b73ffffffffffffffffffffffffffffffffffffffff1614611328576040517f08c379a000000000000000000000000000000000000000000000000000000000815260040161131f90613cb9565b60405180910390fd5b8181600b9190611339929190612dfb565b505050565b61134661211e565b73ffffffffffffffffffffffffffffffffffffffff1661136461168b565b73ffffffffffffffffffffffffffffffffffffffff16146113ba576040517f08c379a00000000000000000000000000000000000000000000000000000000081526004016113b190613cb9565b60405180910390fd5b8060078190555050565b6113cc61211e565b73ffffffffffffffffffffffffffffffffffffffff166113ea61168b565b73ffffffffffffffffffffffffffffffffffffffff1614611440576040517f08c379a000000000000000000000000000000000000000000000000000000000815260040161143790613cb9565b60405180910390fd5b600e60149054906101000a900460ff1615600e60146101000a81548160ff021916908315150217905550565b6000806002600084815260200190815260200160002060009054906101000a900473ffffffffffffffffffffffffffffffffffffffff169050600073ffffffffffffffffffffffffffffffffffffffff168173ffffffffffffffffffffffffffffffffffffffff161415611515576040517f08c379a000000000000000000000000000000000000000000000000000000000815260040161150c90613c59565b60405180910390fd5b80915050919050565b60085481565b60008073ffffffffffffffffffffffffffffffffffffffff168273ffffffffffffffffffffffffffffffffffffffff161415611595576040517f08c379a000000000000000000000000000000000000000000000000000000000815260040161158c90613c39565b60405180910390fd5b600360008373ffffffffffffffffffffffffffffffffffffffff1673ffffffffffffffffffffffffffffffffffffffff168152602001908152602001600020549050919050565b6115e461211e565b73ffffffffffffffffffffffffffffffffffffffff1661160261168b565b73ffffffffffffffffffffffffffffffffffffffff1614611658576040517f08c379a000000000000000000000000000000000000000000000000000000000815260040161164f90613cb9565b60405180910390fd5b61166260006125de565b565b60095481565b606061167e611679600f61224b565b6126a4565b905090565b600047905090565b6000600660009054906101000a900473ffffffffffffffffffffffffffffffffffffffff16905090565b6116bd61211e565b73ffffffffffffffffffffffffffffffffffffffff166116db61168b565b73ffffffffffffffffffffffffffffffffffffffff1614611731576040517f08c379a000000000000000000000000000000000000000000000000000000000815260040161172890613cb9565b60405180910390fd5b8181600a9190611742929190612dfb565b505050565b60606001805461175690614058565b80601f016020809104026020016040519081016040528092919081815260200182805461178290614058565b80156117cf5780601f106117a4576101008083540402835291602001916117cf565b820191906000526020600020905b8154815290600101906020018083116117b257829003601f168201915b5050505050905090565b806007546117e7600f61224b565b10611827576040517f08c379a000000000000000000000000000000000000000000000000000000000815260040161181e90613bb9565b60405180910390fd5b60075481611835600f61224b565b61183f9190613e8d565b1115611880576040517f08c379a000000000000000000000000000000000000000000000000000000000815260040161187790613b19565b60405180910390fd5b6009548111156118c5576040517f08c379a00000000000000000000000000000000000000000000000000000000081526004016118bc90613d59565b60405180910390fd5b600e60159054906101000a900460ff16611914576040517f08c379a000000000000000000000000000000000000000000000000000000000815260040161190b90613bd9565b60405180910390fd5b816008546119229190613f14565b341015611964576040517f08c379a000000000000000000000000000000000000000000000000000000000815260040161195b90613d79565b60405180910390fd5b61196c61168b565b73ffffffffffffffffffffffffffffffffffffffff163373ffffffffffffffffffffffffffffffffffffffff1614156119da576040517f08c379a00000000000000000000000000000000000000000000000000000000081526004016119d190613d19565b60405180910390fd5b6119e43383612259565b5050565b6119fa6119f361211e565b8383612805565b5050565b600c8054611a0b90614058565b80601f0160208091040260200160405190810160405280929190818152602001828054611a3790614058565b8015611a845780601f10611a5957610100808354040283529160200191611a84565b820191906000526020600020905b815481529060010190602001808311611a6757829003601f168201915b505050505081565b611a9d611a9761211e565b83612299565b611adc576040517f08c379a0000000000000000000000000000000000000000000000000000000008152600401611ad390613d39565b60405180910390fd5b611ae884848484612972565b50505050565b6060611af982612126565b611b38576040517f08c379a0000000000000000000000000000000000000000000000000000000008152600401611b2f90613cd9565b60405180910390fd5b60001515600e60149054906101000a900460ff1615151415611be657600c8054611b6190614058565b80601f0160208091040260200160405190810160405280929190818152602001828054611b8d90614058565b8015611bda5780601f10611baf57610100808354040283529160200191611bda565b820191906000526020600020905b815481529060010190602001808311611bbd57829003601f168201915b50505050509050611c14565b600b611bf1836126a4565b604051602001611c02929190613900565b60405160208183030381529060405290505b919050565b611c2161211e565b73ffffffffffffffffffffffffffffffffffffffff16611c3f61168b565b73ffffffffffffffffffffffffffffffffffffffff1614611c95576040517f08c379a0000000000000000000000000000000000000000000000000000000008152600401611c8c90613cb9565b60405180910390fd5b600e60169054906101000a900460ff1615600e60166101000a81548160ff021916908315150217905550565b600d5481565b600e60159054906101000a900460ff1681565b611ce261211e565b73ffffffffffffffffffffffffffffffffffffffff16611d0061168b565b73ffffffffffffffffffffffffffffffffffffffff1614611d56576040517f08c379a0000000000000000000000000000000000000000000000000000000008152600401611d4d90613cb9565b60405180910390fd5b8060088190555050565b611d6861211e565b73ffffffffffffffffffffffffffffffffffffffff16611d8661168b565b73ffffffffffffffffffffffffffffffffffffffff1614611ddc576040517f08c379a0000000000000000000000000000000000000000000000000000000008152600401611dd390613cb9565b60405180910390fd5b8181600c9190611ded929190612dfb565b505050565b6060600a8054611e0190614058565b80601f0160208091040260200160405190810160405280929190818152602001828054611e2d90614058565b8015611e7a5780601f10611e4f57610100808354040283529160200191611e7a565b820191906000526020600020905b815481529060010190602001808311611e5d57829003601f168201915b5050505050905090565b6000600560008473ffffffffffffffffffffffffffffffffffffffff1673ffffffffffffffffffffffffffffffffffffffff16815260200190815260200160002060008373ffffffffffffffffffffffffffffffffffffffff1673ffffffffffffffffffffffffffffffffffffffff16815260200190815260200160002060009054906101000a900460ff16905092915050565b611f2061211e565b73ffffffffffffffffffffffffffffffffffffffff16611f3e61168b565b73ffffffffffffffffffffffffffffffffffffffff1614611f94576040517f08c379a0000000000000000000000000000000000000000000000000000000008152600401611f8b90613cb9565b60405180910390fd5b600073ffffffffffffffffffffffffffffffffffffffff168173ffffffffffffffffffffffffffffffffffffffff161415612004576040517f08c379a0000000000000000000000000000000000000000000000000000000008152600401611ffb90613af9565b60405180910390fd5b61200d816125de565b50565b606061202a600e60159054906101000a900460ff1661120f565b612042600e60149054906101000a900460ff1661120f565b61205a600e60169054906101000a900460ff1661120f565b61206261166a565b600c600d546120726008546126a4565b61207d6007546126a4565b6120886009546126a4565b6040516020016120a09998979695949392919061392f565b604051602081830303815290604052905090565b60007f01ffc9a7000000000000000000000000000000000000000000000000000000007bffffffffffffffffffffffffffffffffffffffffffffffffffffffff1916827bffffffffffffffffffffffffffffffffffffffffffffffffffffffff1916149050919050565b600033905090565b60008073ffffffffffffffffffffffffffffffffffffffff166002600084815260200190815260200160002060009054906101000a900473ffffffffffffffffffffffffffffffffffffffff1673ffffffffffffffffffffffffffffffffffffffff1614159050919050565b816004600083815260200190815260200160002060006101000a81548173ffffffffffffffffffffffffffffffffffffffff021916908373ffffffffffffffffffffffffffffffffffffffff160217905550808273ffffffffffffffffffffffffffffffffffffffff166122058361146c565b73ffffffffffffffffffffffffffffffffffffffff167f8c5be1e5ebec7d5bd14f71427d1e84f3dd0314c0f7b2291e5b200ac8c7c3b92560405160405180910390a45050565b600081600001549050919050565b60005b818110156122945761226e600f6129ce565b6122818361227c600f61224b565b6129e4565b808061228c906140bb565b91505061225c565b505050565b60006122a482612126565b6122e3576040517f08c379a00000000000000000000000000000000000000000000000000000000081526004016122da90613bf9565b60405180910390fd5b60006122ee8361146c565b90508073ffffffffffffffffffffffffffffffffffffffff168473ffffffffffffffffffffffffffffffffffffffff16148061235d57508373ffffffffffffffffffffffffffffffffffffffff1661234584610ba5565b73ffffffffffffffffffffffffffffffffffffffff16145b8061236e575061236d8185611e84565b5b91505092915050565b8273ffffffffffffffffffffffffffffffffffffffff166123978261146c565b73ffffffffffffffffffffffffffffffffffffffff16146123ed576040517f08c379a00000000000000000000000000000000000000000000000000000000081526004016123e490613b39565b60405180910390fd5b600073ffffffffffffffffffffffffffffffffffffffff168273ffffffffffffffffffffffffffffffffffffffff16141561245d576040517f08c379a000000000000000000000000000000000000000000000000000000000815260040161245490613b79565b60405180910390fd5b612468838383612a02565b612473600082612192565b6001600360008573ffffffffffffffffffffffffffffffffffffffff1673ffffffffffffffffffffffffffffffffffffffff16815260200190815260200160002060008282546124c39190613f6e565b925050819055506001600360008473ffffffffffffffffffffffffffffffffffffffff1673ffffffffffffffffffffffffffffffffffffffff168152602001908152602001600020600082825461251a9190613e8d565b92505081905550816002600083815260200190815260200160002060006101000a81548173ffffffffffffffffffffffffffffffffffffffff021916908373ffffffffffffffffffffffffffffffffffffffff160217905550808273ffffffffffffffffffffffffffffffffffffffff168473ffffffffffffffffffffffffffffffffffffffff167fddf252ad1be2c89b69c2b068fc378daa952ba7f163c4a11628f55a4df523b3ef60405160405180910390a46125d9838383612a07565b505050565b6000600660009054906101000a900473ffffffffffffffffffffffffffffffffffffffff16905081600660006101000a81548173ffffffffffffffffffffffffffffffffffffffff021916908373ffffffffffffffffffffffffffffffffffffffff1602179055508173ffffffffffffffffffffffffffffffffffffffff168173ffffffffffffffffffffffffffffffffffffffff167f8be0079c531659141344cd1fd0a4f28419497f9722a3daafe3b4186f6b6457e060405160405180910390a35050565b606060008214156126ec576040518060400160405280600181526020017f30000000000000000000000000000000000000000000000000000000000000008152509050612800565b600082905060005b6000821461271e578080612707906140bb565b915050600a826127179190613ee3565b91506126f4565b60008167ffffffffffffffff81111561273a576127396141fb565b5b6040519080825280601f01601f19166020018201604052801561276c5781602001600182028036833780820191505090505b5090505b600085146127f9576001826127859190613f6e565b9150600a85612794919061410e565b60306127a09190613e8d565b60f81b8183815181106127b6576127b56141cc565b5b60200101907effffffffffffffffffffffffffffffffffffffffffffffffffffffffffffff1916908160001a905350600a856127f29190613ee3565b9450612770565b8093505050505b919050565b8173ffffffffffffffffffffffffffffffffffffffff168373ffffffffffffffffffffffffffffffffffffffff161415612874576040517f08c379a000000000000000000000000000000000000000000000000000000000815260040161286b90613b99565b60405180910390fd5b80600560008573ffffffffffffffffffffffffffffffffffffffff1673ffffffffffffffffffffffffffffffffffffffff16815260200190815260200160002060008473ffffffffffffffffffffffffffffffffffffffff1673ffffffffffffffffffffffffffffffffffffffff16815260200190815260200160002060006101000a81548160ff0219169083151502179055508173ffffffffffffffffffffffffffffffffffffffff168373ffffffffffffffffffffffffffffffffffffffff167f17307eab39ab6107e8899845ad3d59bd9653f200f220920489ca2b5937696c31836040516129659190613a9c565b60405180910390a3505050565b61297d848484612377565b61298984848484612a0c565b6129c8576040517f08c379a00000000000000000000000000000000000000000000000000000000081526004016129bf90613ad9565b60405180910390fd5b50505050565b6001816000016000828254019250508190555050565b6129fe828260405180602001604052806000815250612ba3565b5050565b505050565b505050565b6000612a2d8473ffffffffffffffffffffffffffffffffffffffff16612bfe565b15612b96578373ffffffffffffffffffffffffffffffffffffffff1663150b7a02612a5661211e565b8786866040518563ffffffff1660e01b8152600401612a789493929190613a50565b602060405180830381600087803b158015612a9257600080fd5b505af1925050508015612ac357506040513d601f19601f82011682018060405250810190612ac091906131ea565b60015b612b46573d8060008114612af3576040519150601f19603f3d011682016040523d82523d6000602084013e612af8565b606091505b50600081511415612b3e576040517f08c379a0000000000000000000000000000000000000000000000000000000008152600401612b3590613ad9565b60405180910390fd5b805181602001fd5b63150b7a0260e01b7bffffffffffffffffffffffffffffffffffffffffffffffffffffffff1916817bffffffffffffffffffffffffffffffffffffffffffffffffffffffff191614915050612b9b565b600190505b949350505050565b612bad8383612c21565b612bba6000848484612a0c565b612bf9576040517f08c379a0000000000000000000000000000000000000000000000000000000008152600401612bf090613ad9565b60405180910390fd5b505050565b6000808273ffffffffffffffffffffffffffffffffffffffff163b119050919050565b600073ffffffffffffffffffffffffffffffffffffffff168273ffffffffffffffffffffffffffffffffffffffff161415612c91576040517f08c379a0000000000000000000000000000000000000000000000000000000008152600401612c8890613c79565b60405180910390fd5b612c9a81612126565b15612cda576040517f08c379a0000000000000000000000000000000000000000000000000000000008152600401612cd190613b59565b60405180910390fd5b612ce660008383612a02565b6001600360008473ffffffffffffffffffffffffffffffffffffffff1673ffffffffffffffffffffffffffffffffffffffff1681526020019081526020016000206000828254612d369190613e8d565b92505081905550816002600083815260200190815260200160002060006101000a81548173ffffffffffffffffffffffffffffffffffffffff021916908373ffffffffffffffffffffffffffffffffffffffff160217905550808273ffffffffffffffffffffffffffffffffffffffff16600073ffffffffffffffffffffffffffffffffffffffff167fddf252ad1be2c89b69c2b068fc378daa952ba7f163c4a11628f55a4df523b3ef60405160405180910390a4612df760008383612a07565b5050565b828054612e0790614058565b90600052602060002090601f016020900481019282612e295760008555612e70565b82601f10612e4257803560ff1916838001178555612e70565b82800160010185558215612e70579182015b82811115612e6f578235825591602001919060010190612e54565b5b509050612e7d9190612e81565b5090565b5b80821115612e9a576000816000905550600101612e82565b5090565b6000612eb1612eac84613df9565b613dd4565b905082815260208101848484011115612ecd57612ecc614239565b5b612ed8848285614016565b509392505050565b600081359050612eef81614970565b92915050565b600081359050612f0481614987565b92915050565b600081359050612f198161499e565b92915050565b600081519050612f2e8161499e565b92915050565b600082601f830112612f4957612f4861422f565b5b8135612f59848260208601612e9e565b91505092915050565b60008083601f840112612f7857612f7761422f565b5b8235905067ffffffffffffffff811115612f9557612f9461422a565b5b602083019150836001820283011115612fb157612fb0614234565b5b9250929050565b600081359050612fc7816149b5565b92915050565b600060208284031215612fe357612fe2614243565b5b6000612ff184828501612ee0565b91505092915050565b6000806040838503121561301157613010614243565b5b600061301f85828601612ee0565b925050602061303085828601612ee0565b9150509250929050565b60008060006060848603121561305357613052614243565b5b600061306186828701612ee0565b935050602061307286828701612ee0565b925050604061308386828701612fb8565b9150509250925092565b600080600080608085870312156130a7576130a6614243565b5b60006130b587828801612ee0565b94505060206130c687828801612ee0565b93505060406130d787828801612fb8565b925050606085013567ffffffffffffffff8111156130f8576130f761423e565b5b61310487828801612f34565b91505092959194509250565b6000806040838503121561312757613126614243565b5b600061313585828601612ee0565b925050602061314685828601612ef5565b9150509250929050565b6000806040838503121561316757613166614243565b5b600061317585828601612ee0565b925050602061318685828601612fb8565b9150509250929050565b6000602082840312156131a6576131a5614243565b5b60006131b484828501612ef5565b91505092915050565b6000602082840312156131d3576131d2614243565b5b60006131e184828501612f0a565b91505092915050565b600060208284031215613200576131ff614243565b5b600061320e84828501612f1f565b91505092915050565b6000806020838503121561322e5761322d614243565b5b600083013567ffffffffffffffff81111561324c5761324b61423e565b5b61325885828601612f62565b92509250509250929050565b60006020828403121561327a57613279614243565b5b600061328884828501612fb8565b91505092915050565b600080604083850312156132a8576132a7614243565b5b60006132b685828601612fb8565b92505060206132c785828601612ee0565b9150509250929050565b6132da81613fa2565b82525050565b6132e981613fb4565b82525050565b60006132fa82613e3f565b6133048185613e55565b9350613314818560208601614025565b61331d81614248565b840191505092915050565b600061333382613e4a565b61333d8185613e71565b935061334d818560208601614025565b61335681614248565b840191505092915050565b600061336c82613e4a565b6133768185613e82565b9350613386818560208601614025565b80840191505092915050565b6000815461339f81614058565b6133a98186613e82565b945060018216600081146133c457600181146133d557613408565b60ff19831686528186019350613408565b6133de85613e2a565b60005b83811015613400578154818901526001820191506020810190506133e1565b838801955050505b50505092915050565b600061341e601583613e82565b915061342982614259565b601582019050919050565b6000613441600d83613e82565b915061344c82614282565b600d82019050919050565b6000613464601483613e82565b915061346f826142ab565b601482019050919050565b6000613487603283613e71565b9150613492826142d4565b604082019050919050565b60006134aa602683613e71565b91506134b582614323565b604082019050919050565b60006134cd600c83613e71565b91506134d882614372565b602082019050919050565b60006134f0602583613e71565b91506134fb8261439b565b604082019050919050565b6000613513601c83613e71565b915061351e826143ea565b602082019050919050565b6000613536600d83613e82565b915061354182614413565b600d82019050919050565b6000613559602483613e71565b91506135648261443c565b604082019050919050565b600061357c601983613e71565b91506135878261448b565b602082019050919050565b600061359f600c83613e71565b91506135aa826144b4565b602082019050919050565b60006135c2600383613e82565b91506135cd826144dd565b600382019050919050565b60006135e5600b83613e71565b91506135f082614506565b602082019050919050565b6000613608602c83613e71565b91506136138261452f565b604082019050919050565b600061362b600f83613e82565b91506136368261457e565b600f82019050919050565b600061364e600f83613e82565b9150613659826145a7565b600f82019050919050565b6000613671603883613e71565b915061367c826145d0565b604082019050919050565b6000613694602a83613e71565b915061369f8261461f565b604082019050919050565b60006136b7602983613e71565b91506136c28261466e565b604082019050919050565b60006136da602083613e71565b91506136e5826146bd565b602082019050919050565b60006136fd602c83613e71565b9150613708826146e6565b604082019050919050565b6000613720600583613e82565b915061372b82614735565b600582019050919050565b6000613743602083613e71565b915061374e8261475e565b602082019050919050565b6000613766601f83613e71565b915061377182614787565b602082019050919050565b6000613789602183613e71565b9150613794826147b0565b604082019050919050565b60006137ac601983613e71565b91506137b7826147ff565b602082019050919050565b60006137cf600083613e66565b91506137da82614828565b600082019050919050565b60006137f2603183613e71565b91506137fd8261482b565b604082019050919050565b6000613815600f83613e82565b91506138208261487a565b600f82019050919050565b6000613838601183613e82565b9150613843826148a3565b601182019050919050565b600061385b601583613e82565b9150613866826148cc565b601582019050919050565b600061387e601483613e71565b9150613889826148f5565b602082019050919050565b60006138a1601083613e71565b91506138ac8261491e565b602082019050919050565b60006138c4600e83613e71565b91506138cf82614947565b602082019050919050565b6138e38161400c565b82525050565b6138fa6138f58261400c565b614104565b82525050565b600061390c8285613392565b91506139188284613361565b915061392382613713565b91508190509392505050565b600061393a82613529565b9150613946828c613361565b915061395182613808565b915061395d828b613361565b91506139688261361e565b9150613974828a613361565b915061397f82613434565b915061398b8289613361565b91506139968261382b565b91506139a28288613392565b91506139ad82613411565b91506139b982876138e9565b6020820191506139c882613641565b91506139d48286613361565b91506139df8261384e565b91506139eb8285613361565b91506139f682613457565b9150613a028284613361565b9150613a0d826135b5565b91508190509a9950505050505050505050565b6000613a2b826137c2565b9150819050919050565b6000602082019050613a4a60008301846132d1565b92915050565b6000608082019050613a6560008301876132d1565b613a7260208301866132d1565b613a7f60408301856138da565b8181036060830152613a9181846132ef565b905095945050505050565b6000602082019050613ab160008301846132e0565b92915050565b60006020820190508181036000830152613ad18184613328565b905092915050565b60006020820190508181036000830152613af28161347a565b9050919050565b60006020820190508181036000830152613b128161349d565b9050919050565b60006020820190508181036000830152613b32816134c0565b9050919050565b60006020820190508181036000830152613b52816134e3565b9050919050565b60006020820190508181036000830152613b7281613506565b9050919050565b60006020820190508181036000830152613b928161354c565b9050919050565b60006020820190508181036000830152613bb28161356f565b9050919050565b60006020820190508181036000830152613bd281613592565b9050919050565b60006020820190508181036000830152613bf2816135d8565b9050919050565b60006020820190508181036000830152613c12816135fb565b9050919050565b60006020820190508181036000830152613c3281613664565b9050919050565b60006020820190508181036000830152613c5281613687565b9050919050565b60006020820190508181036000830152613c72816136aa565b9050919050565b60006020820190508181036000830152613c92816136cd565b9050919050565b60006020820190508181036000830152613cb2816136f0565b9050919050565b60006020820190508181036000830152613cd281613736565b9050919050565b60006020820190508181036000830152613cf281613759565b9050919050565b60006020820190508181036000830152613d128161377c565b9050919050565b60006020820190508181036000830152613d328161379f565b9050919050565b60006020820190508181036000830152613d52816137e5565b9050919050565b60006020820190508181036000830152613d7281613871565b9050919050565b60006020820190508181036000830152613d9281613894565b9050919050565b60006020820190508181036000830152613db2816138b7565b9050919050565b6000602082019050613dce60008301846138da565b92915050565b6000613dde613def565b9050613dea828261408a565b919050565b6000604051905090565b600067ffffffffffffffff821115613e1457613e136141fb565b5b613e1d82614248565b9050602081019050919050565b60008190508160005260206000209050919050565b600081519050919050565b600081519050919050565b600082825260208201905092915050565b600081905092915050565b600082825260208201905092915050565b600081905092915050565b6000613e988261400c565b9150613ea38361400c565b9250827fffffffffffffffffffffffffffffffffffffffffffffffffffffffffffffffff03821115613ed857613ed761413f565b5b828201905092915050565b6000613eee8261400c565b9150613ef98361400c565b925082613f0957613f0861416e565b5b828204905092915050565b6000613f1f8261400c565b9150613f2a8361400c565b9250817fffffffffffffffffffffffffffffffffffffffffffffffffffffffffffffffff0483118215151615613f6357613f6261413f565b5b828202905092915050565b6000613f798261400c565b9150613f848361400c565b925082821015613f9757613f9661413f565b5b828203905092915050565b6000613fad82613fec565b9050919050565b60008115159050919050565b60007fffffffff0000000000000000000000000000000000000000000000000000000082169050919050565b600073ffffffffffffffffffffffffffffffffffffffff82169050919050565b6000819050919050565b82818337600083830152505050565b60005b83811015614043578082015181840152602081019050614028565b83811115614052576000848401525b50505050565b6000600282049050600182168061407057607f821691505b602082108114156140845761408361419d565b5b50919050565b61409382614248565b810181811067ffffffffffffffff821117156140b2576140b16141fb565b5b80604052505050565b60006140c68261400c565b91507fffffffffffffffffffffffffffffffffffffffffffffffffffffffffffffffff8214156140f9576140f861413f565b5b600182019050919050565b6000819050919050565b60006141198261400c565b91506141248361400c565b9250826141345761413361416e565b5b828206905092915050565b7f4e487b7100000000000000000000000000000000000000000000000000000000600052601160045260246000fd5b7f4e487b7100000000000000000000000000000000000000000000000000000000600052601260045260246000fd5b7f4e487b7100000000000000000000000000000000000000000000000000000000600052602260045260246000fd5b7f4e487b7100000000000000000000000000000000000000000000000000000000600052603260045260246000fd5b7f4e487b7100000000000000000000000000000000000000000000000000000000600052604160045260246000fd5b600080fd5b600080fd5b600080fd5b600080fd5b600080fd5b600080fd5b6000601f19601f8301169050919050565b7f222c202263757272656e7442616c616e6365223a220000000000000000000000600082015250565b7f222c2022537570706c79223a2200000000000000000000000000000000000000600082015250565b7f222c20224e4654535f5045525f4d494e54223a22000000000000000000000000600082015250565b7f4552433732313a207472616e7366657220746f206e6f6e20455243373231526560008201527f63656976657220696d706c656d656e7465720000000000000000000000000000602082015250565b7f4f776e61626c653a206e6577206f776e657220697320746865207a65726f206160008201527f6464726573730000000000000000000000000000000000000000000000000000602082015250565b7f4558434545445f53544f434b0000000000000000000000000000000000000000600082015250565b7f4552433732313a207472616e736665722066726f6d20696e636f72726563742060008201527f6f776e6572000000000000000000000000000000000000000000000000000000602082015250565b7f4552433732313a20746f6b656e20616c7265616479206d696e74656400000000600082015250565b7f7b2273616c654c697665223a2200000000000000000000000000000000000000600082015250565b7f4552433732313a207472616e7366657220746f20746865207a65726f2061646460008201527f7265737300000000000000000000000000000000000000000000000000000000602082015250565b7f4552433732313a20617070726f766520746f2063616c6c657200000000000000600082015250565b7f4f55545f4f465f53544f434b0000000000000000000000000000000000000000600082015250565b7f22207d0000000000000000000000000000000000000000000000000000000000600082015250565b7f53414c455f434c4f534544000000000000000000000000000000000000000000600082015250565b7f4552433732313a206f70657261746f7220717565727920666f72206e6f6e657860008201527f697374656e7420746f6b656e0000000000000000000000000000000000000000602082015250565b7f222c2022676966744c697665223a220000000000000000000000000000000000600082015250565b7f222c224e46545f5052494345223a220000000000000000000000000000000000600082015250565b7f4552433732313a20617070726f76652063616c6c6572206973206e6f74206f7760008201527f6e6572206e6f7220617070726f76656420666f7220616c6c0000000000000000602082015250565b7f4552433732313a2062616c616e636520717565727920666f7220746865207a6560008201527f726f206164647265737300000000000000000000000000000000000000000000602082015250565b7f4552433732313a206f776e657220717565727920666f72206e6f6e657869737460008201527f656e7420746f6b656e0000000000000000000000000000000000000000000000602082015250565b7f4552433732313a206d696e7420746f20746865207a65726f2061646472657373600082015250565b7f4552433732313a20617070726f76656420717565727920666f72206e6f6e657860008201527f697374656e7420746f6b656e0000000000000000000000000000000000000000602082015250565b7f2e6a736f6e000000000000000000000000000000000000000000000000000000600082015250565b7f4f776e61626c653a2063616c6c6572206973206e6f7420746865206f776e6572600082015250565b7f43616e6e6f74207175657279206e6f6e2d6578697374656e7420746f6b656e00600082015250565b7f4552433732313a20617070726f76616c20746f2063757272656e74206f776e6560008201527f7200000000000000000000000000000000000000000000000000000000000000602082015250565b7f4f776e65722063616e206e6f74206d696e7420616e204e465400000000000000600082015250565b50565b7f4552433732313a207472616e736665722063616c6c6572206973206e6f74206f60008201527f776e6572206e6f7220617070726f766564000000000000000000000000000000602082015250565b7f222c202272657665616c6564223a220000000000000000000000000000000000600082015250565b7f222c20226d797374657279555249223a22000000000000000000000000000000600082015250565b7f222c20224e46545f4d41585f535550504c59223a220000000000000000000000600082015250565b7f4558434545445f4e4654535f5045525f4d494e54000000000000000000000000600082015250565b7f494e53554646494349454e545f45544800000000000000000000000000000000600082015250565b7f47494654494e475f434c4f534544000000000000000000000000000000000000600082015250565b61497981613fa2565b811461498457600080fd5b50565b61499081613fb4565b811461499b57600080fd5b50565b6149a781613fc0565b81146149b257600080fd5b50565b6149be8161400c565b81146149c957600080fd5b5056fea264697066735822122093d63dc35aeab9216622daa953a3442615e3a6e37558e74cd0b80ed958ea0ac264736f6c63430008070033",
  "linkReferences": {},
  "deployedLinkReferences": {}
}